{
  "config": {
    "chainId": 1338,
    "berlinBlock": 0,
    "londonBlock": 0,
    "shanghaiTime": 0,
    "ibft2": {
      "blockperiodseconds": 2,
      "epochlength": 30000,
      "requesttimeoutseconds": 4
    }
  },
  "nonce": "0x0",
  "timestamp": "0x67000000",
  "gasLimit": "0x1fffffffffffff",
  "difficulty": "0x1",
  "mixHash": "0x63746963616c2062797a616e74696e65206661756c7420746f6c6572616e6365",
  "coinbase": "0x0000000000000000000000000000000000000000",
  "alloc": {
    "0x2c68f0b2cde0944bd3d41880d50199c874a9fa98": {
      "balance": "0x33b2e3c9fd0803ce8000000",
      "comment": "validator-1 + dev funded account; matches keys/validator-1/key"
    }
  },
  "extraData": "0xf87ea00000000000000000000000000000000000000000000000000000000000000000f8549451a77b6eac815ce97fed00519c7e22f27f03918494e1489d79bfd6583b183a7e51e6845054e2728fdf942c68f0b2cde0944bd3d41880d50199c874a9fa989459bed46453fe2b94ef5c072e3682c65018a653e4808400000000c0"
}
