{
  "config": {
    "chainId": 1338,
    "berlinBlock": 0,
    "londonBlock": 0,
    "shanghaiTime": 0,
    "ibft2": {
      "blockperiodseconds": 2,
      "epochlength": 30000,
      "requesttimeoutseconds": 4
    }
  },
  "nonce": "0x0",
  "timestamp": "0x67000000",
  "gasLimit": "0x1fffffffffffff",
  "difficulty": "0x1",
  "mixHash": "0x63746963616c2062797a616e74696e65206661756c7420746f6c6572616e6365",
  "coinbase": "0x0000000000000000000000000000000000000000",
  "alloc": {
    "0x47de9acb72bab941384ee0370ff2d601949a3d0e": {
      "balance": "0x33b2e3c9fd0803ce8000000",
      "comment": "validator-1 + dev funded account; matches keys/validator-1/key"
    }
  },
  "extraData": "0xf87ea00000000000000000000000000000000000000000000000000000000000000000f8549453c4b172378c77ad61af846d98b41c2022a7485d94e68771b8e1d1d7639b61fd0f432fad59b2e83c4594f29a55c5ed3b16299f3c079f60a2554d906b6b6b9447de9acb72bab941384ee0370ff2d601949a3d0e808400000000c0"
}
